:100000000C942A000C9434000C9434000C943400AA
:100010000C9434000C9434000C9434000C94340090
:100020000C9434000C9434000C9434000C94340080
:100030000C9434000C9434000C9434000C94340070
:100040000C9434000C9434000C9434000C94340060
:100050000C94340011241FBECFE5D8E0DEBFCDBF25
:100060000E9452000C9463000C94000016161706B0
:1000700034F480E090E0019668177907E1F795B3D2
:1000800081E0892785BB08951416150634F480E0B5
:1000900090E0019648175907E1F795B382E0892768
:1000A00085BB08958FEF84BB4FEF5FE76AE979E97D
:1000B00085E291E40E9444006FEF7FE780E090E0EA
:0A00C0000E943600F1CFF894FFCF44
:00000001FF
